{
  "_format": "hh-sol-artifact-1",
  "contractName": "MyEpicNFT",
  "sourceName": "contracts/MyEpicNFT.sol",
  "abi": [
    {
      "inputs": [],
      "stateMutability": "nonpayable",
      "type": "constructor"
    },
    {
      "anonymous": false,
      "inputs": [
        {
          "indexed": true,
          "internalType": "address",
          "name": "owner",
          "type": "address"
        },
        {
          "indexed": true,
          "internalType": "address",
          "name": "approved",
          "type": "address"
        },
        {
          "indexed": true,
          "internalType": "uint256",
          "name": "tokenId",
          "type": "uint256"
        }
      ],
      "name": "Approval",
      "type": "event"
    },
    {
      "anonymous": false,
      "inputs": [
        {
          "indexed": true,
          "internalType": "address",
          "name": "owner",
          "type": "address"
        },
        {
          "indexed": true,
          "internalType": "address",
          "name": "operator",
          "type": "address"
        },
        {
          "indexed": false,
          "internalType": "bool",
          "name": "approved",
          "type": "bool"
        }
      ],
      "name": "ApprovalForAll",
      "type": "event"
    },
    {
      "anonymous": false,
      "inputs": [
        {
          "indexed": false,
          "internalType": "address",
          "name": "sender",
          "type": "address"
        },
        {
          "indexed": false,
          "internalType": "uint256",
          "name": "tokenId",
          "type": "uint256"
        }
      ],
      "name": "NewEpicNFTMinted",
      "type": "event"
    },
    {
      "anonymous": false,
      "inputs": [
        {
          "indexed": true,
          "internalType": "address",
          "name": "from",
          "type": "address"
        },
        {
          "indexed": true,
          "internalType": "address",
          "name": "to",
          "type": "address"
        },
        {
          "indexed": true,
          "internalType": "uint256",
          "name": "tokenId",
          "type": "uint256"
        }
      ],
      "name": "Transfer",
      "type": "event"
    },
    {
      "inputs": [
        {
          "internalType": "address",
          "name": "to",
          "type": "address"
        },
        {
          "internalType": "uint256",
          "name": "tokenId",
          "type": "uint256"
        }
      ],
      "name": "approve",
      "outputs": [],
      "stateMutability": "nonpayable",
      "type": "function"
    },
    {
      "inputs": [
        {
          "internalType": "address",
          "name": "owner",
          "type": "address"
        }
      ],
      "name": "balanceOf",
      "outputs": [
        {
          "internalType": "uint256",
          "name": "",
          "type": "uint256"
        }
      ],
      "stateMutability": "view",
      "type": "function"
    },
    {
      "inputs": [
        {
          "internalType": "uint256",
          "name": "tokenId",
          "type": "uint256"
        }
      ],
      "name": "getApproved",
      "outputs": [
        {
          "internalType": "address",
          "name": "",
          "type": "address"
        }
      ],
      "stateMutability": "view",
      "type": "function"
    },
    {
      "inputs": [
        {
          "internalType": "address",
          "name": "owner",
          "type": "address"
        },
        {
          "internalType": "address",
          "name": "operator",
          "type": "address"
        }
      ],
      "name": "isApprovedForAll",
      "outputs": [
        {
          "internalType": "bool",
          "name": "",
          "type": "bool"
        }
      ],
      "stateMutability": "view",
      "type": "function"
    },
    {
      "inputs": [],
      "name": "makeAnEpicNFT",
      "outputs": [],
      "stateMutability": "nonpayable",
      "type": "function"
    },
    {
      "inputs": [],
      "name": "name",
      "outputs": [
        {
          "internalType": "string",
          "name": "",
          "type": "string"
        }
      ],
      "stateMutability": "view",
      "type": "function"
    },
    {
      "inputs": [
        {
          "internalType": "uint256",
          "name": "tokenId",
          "type": "uint256"
        }
      ],
      "name": "ownerOf",
      "outputs": [
        {
          "internalType": "address",
          "name": "",
          "type": "address"
        }
      ],
      "stateMutability": "view",
      "type": "function"
    },
    {
      "inputs": [
        {
          "internalType": "uint256",
          "name": "tokenId",
          "type": "uint256"
        }
      ],
      "name": "pickRandomColor",
      "outputs": [
        {
          "internalType": "string",
          "name": "",
          "type": "string"
        }
      ],
      "stateMutability": "view",
      "type": "function"
    },
    {
      "inputs": [
        {
          "internalType": "uint256",
          "name": "tokenId",
          "type": "uint256"
        }
      ],
      "name": "pickRandomFirstWord",
      "outputs": [
        {
          "internalType": "string",
          "name": "",
          "type": "string"
        }
      ],
      "stateMutability": "view",
      "type": "function"
    },
    {
      "inputs": [
        {
          "internalType": "uint256",
          "name": "tokenId",
          "type": "uint256"
        }
      ],
      "name": "pickRandomSecondWord",
      "outputs": [
        {
          "internalType": "string",
          "name": "",
          "type": "string"
        }
      ],
      "stateMutability": "view",
      "type": "function"
    },
    {
      "inputs": [
        {
          "internalType": "uint256",
          "name": "tokenId",
          "type": "uint256"
        }
      ],
      "name": "pickRandomThirdWord",
      "outputs": [
        {
          "internalType": "string",
          "name": "",
          "type": "string"
        }
      ],
      "stateMutability": "view",
      "type": "function"
    },
    {
      "inputs": [
        {
          "internalType": "address",
          "name": "from",
          "type": "address"
        },
        {
          "internalType": "address",
          "name": "to",
          "type": "address"
        },
        {
          "internalType": "uint256",
          "name": "tokenId",
          "type": "uint256"
        }
      ],
      "name": "safeTransferFrom",
      "outputs": [],
      "stateMutability": "nonpayable",
      "type": "function"
    },
    {
      "inputs": [
        {
          "internalType": "address",
          "name": "from",
          "type": "address"
        },
        {
          "internalType": "address",
          "name": "to",
          "type": "address"
        },
        {
          "internalType": "uint256",
          "name": "tokenId",
          "type": "uint256"
        },
        {
          "internalType": "bytes",
          "name": "_data",
          "type": "bytes"
        }
      ],
      "name": "safeTransferFrom",
      "outputs": [],
      "stateMutability": "nonpayable",
      "type": "function"
    },
    {
      "inputs": [
        {
          "internalType": "address",
          "name": "operator",
          "type": "address"
        },
        {
          "internalType": "bool",
          "name": "approved",
          "type": "bool"
        }
      ],
      "name": "setApprovalForAll",
      "outputs": [],
      "stateMutability": "nonpayable",
      "type": "function"
    },
    {
      "inputs": [
        {
          "internalType": "bytes4",
          "name": "interfaceId",
          "type": "bytes4"
        }
      ],
      "name": "supportsInterface",
      "outputs": [
        {
          "internalType": "bool",
          "name": "",
          "type": "bool"
        }
      ],
      "stateMutability": "view",
      "type": "function"
    },
    {
      "inputs": [],
      "name": "symbol",
      "outputs": [
        {
          "internalType": "string",
          "name": "",
          "type": "string"
        }
      ],
      "stateMutability": "view",
      "type": "function"
    },
    {
      "inputs": [
        {
          "internalType": "uint256",
          "name": "tokenId",
          "type": "uint256"
        }
      ],
      "name": "tokenURI",
      "outputs": [
        {
          "internalType": "string",
          "name": "",
          "type": "string"
        }
      ],
      "stateMutability": "view",
      "type": "function"
    },
    {
      "inputs": [],
      "name": "totalSupply",
      "outputs": [
        {
          "internalType": "uint256",
          "name": "",
          "type": "uint256"
        }
      ],
      "stateMutability": "view",
      "type": "function"
    },
    {
      "inputs": [
        {
          "internalType": "address",
          "name": "from",
          "type": "address"
        },
        {
          "internalType": "address",
          "name": "to",
          "type": "address"
        },
        {
          "internalType": "uint256",
          "name": "tokenId",
          "type": "uint256"
        }
      ],
      "name": "transferFrom",
      "outputs": [],
      "stateMutability": "nonpayable",
      "type": "function"
    }
  ],
  "bytecode": "0x6080604052603260085560405180610100016040528060d381526020016200458960d39139600990805190602001906200003b92919062000831565b506040518060800160405280605681526020016200465c60569139600a90805190602001906200006d92919062000831565b506040518060c001604052806040518060400160405280600481526020017f476f6f640000000000000000000000000000000000000000000000000000000081525081526020016040518060400160405280600381526020017f426164000000000000000000000000000000000000000000000000000000000081525081526020016040518060400160405280600981526020017f46616e746173746963000000000000000000000000000000000000000000000081525081526020016040518060400160405280600681526020017f4c6f76696e67000000000000000000000000000000000000000000000000000081525081526020016040518060400160405280600481526020017f437574650000000000000000000000000000000000000000000000000000000081525081526020016040518060400160405280600881526020017f476f7267656f7573000000000000000000000000000000000000000000000000815250815250600b906006620001eb929190620008c2565b506040518060c001604052806040518060400160405280600681526020017f4d656d6f7279000000000000000000000000000000000000000000000000000081525081526020016040518060400160405280600581526020017f4576656e7400000000000000000000000000000000000000000000000000000081525081526020016040518060400160405280600781526020017f436c61737369630000000000000000000000000000000000000000000000000081525081526020016040518060400160405280600681526020017f52616e646f6d000000000000000000000000000000000000000000000000000081525081526020016040518060400160405280600581526020017f477265617400000000000000000000000000000000000000000000000000000081525081526020016040518060400160405280600981526020017f576f6e64657266756c0000000000000000000000000000000000000000000000815250815250600c90600662000369929190620008c2565b506040518060c001604052806040518060400160405280600681526020017f4d6f6e646179000000000000000000000000000000000000000000000000000081525081526020016040518060400160405280600781526020017f547565736461790000000000000000000000000000000000000000000000000081525081526020016040518060400160405280600981526020017f5765646e6573646179000000000000000000000000000000000000000000000081525081526020016040518060400160405280600881526020017f546875727364617900000000000000000000000000000000000000000000000081525081526020016040518060400160405280600681526020017f467269646179000000000000000000000000000000000000000000000000000081525081526020016040518060400160405280600881526020017f5361747572646179000000000000000000000000000000000000000000000000815250815250600d906006620004e7929190620008c2565b506040518060c001604052806040518060400160405280600381526020017f726564000000000000000000000000000000000000000000000000000000000081525081526020016040518060400160405280600781526020017f233038433241380000000000000000000000000000000000000000000000000081525081526020016040518060400160405280600581526020017f626c61636b00000000000000000000000000000000000000000000000000000081525081526020016040518060400160405280600681526020017f79656c6c6f77000000000000000000000000000000000000000000000000000081525081526020016040518060400160405280600481526020017f626c75650000000000000000000000000000000000000000000000000000000081525081526020016040518060400160405280600581526020017f677265656e000000000000000000000000000000000000000000000000000000815250815250600e90600662000665929190620008c2565b503480156200067357600080fd5b506040518060400160405280600981526020017f5371756172654e465400000000000000000000000000000000000000000000008152506040518060400160405280600681526020017f53515541524500000000000000000000000000000000000000000000000000008152508160009080519060200190620006f892919062000831565b5080600190805190602001906200071192919062000831565b5050506200075f6040518060400160405280601e81526020017f54686973206973206d79204e465420636f6e74726163742e2057686f612100008152506200076560201b620013db1760201c565b62000ae3565b62000805816040516024016200077c9190620009f7565b6040516020818303038152906040527f41304fac000000000000000000000000000000000000000000000000000000007bffffffffffffffffffffffffffffffffffffffffffffffffffffffff19166020820180517bffffffffffffffffffffffffffffffffffffffffffffffffffffffff83818316178352505050506200080860201b60201c565b50565b60008151905060006a636f6e736f6c652e6c6f679050602083016000808483855afa5050505050565b8280546200083f9062000a6d565b90600052602060002090601f016020900481019282620008635760008555620008af565b82601f106200087e57805160ff1916838001178555620008af565b82800160010185558215620008af579182015b82811115620008ae57825182559160200191906001019062000891565b5b509050620008be919062000929565b5090565b82805482825590600052602060002090810192821562000916579160200282015b82811115620009155782518290805190602001906200090492919062000831565b5091602001919060010190620008e3565b5b50905062000925919062000948565b5090565b5b80821115620009445760008160009055506001016200092a565b5090565b5b808211156200096c576000818162000962919062000970565b5060010162000949565b5090565b5080546200097e9062000a6d565b6000825580601f10620009925750620009b3565b601f016020900490600052602060002090810190620009b2919062000929565b5b50565b6000620009c38262000a1b565b620009cf818562000a26565b9350620009e181856020860162000a37565b620009ec8162000ad2565b840191505092915050565b6000602082019050818103600083015262000a138184620009b6565b905092915050565b600081519050919050565b600082825260208201905092915050565b60005b8381101562000a5757808201518184015260208101905062000a3a565b8381111562000a67576000848401525b50505050565b6000600282049050600182168062000a8657607f821691505b6020821081141562000a9d5762000a9c62000aa3565b5b50919050565b7f4e487b7100000000000000000000000000000000000000000000000000000000600052602260045260246000fd5b6000601f19601f8301169050919050565b613a968062000af36000396000f3fe608060405234801561001057600080fd5b50600436106101215760003560e01c80636352211e116100ad578063b88d4fde11610071578063b88d4fde14610340578063c575757a1461035c578063c87b56dd1461038c578063de9d132f146103bc578063e985e9c5146103c657610121565b80636352211e1461027657806370a08231146102a657806395d89b41146102d6578063a22cb465146102f4578063b187301f1461031057610121565b806318160ddd116100f457806318160ddd146101c057806323b872dd146101de5780632de38d68146101fa57806342842e0e1461022a578063514dc8c61461024657610121565b806301ffc9a71461012657806306fdde0314610156578063081812fc14610174578063095ea7b3146101a4575b600080fd5b610140600480360381019061013b919061266e565b6103f6565b60405161014d919061330c565b60405180910390f35b61015e6104d8565b60405161016b9190613327565b60405180910390f35b61018e600480360381019061018991906126c0565b61056a565b60405161019b919061327c565b60405180910390f35b6101be60048036038101906101b99190612632565b6105ef565b005b6101c8610707565b6040516101d59190613587565b60405180910390f35b6101f860048036038101906101f3919061252c565b61070d565b005b610214600480360381019061020f91906126c0565b61076d565b6040516102219190613327565b60405180910390f35b610244600480360381019061023f919061252c565b61088b565b005b610260600480360381019061025b91906126c0565b6108ab565b60405161026d9190613327565b60405180910390f35b610290600480360381019061028b91906126c0565b6109c9565b60405161029d919061327c565b60405180910390f35b6102c060048036038101906102bb91906124c7565b610a7b565b6040516102cd9190613587565b60405180910390f35b6102de610b33565b6040516102eb9190613327565b60405180910390f35b61030e600480360381019061030991906125f6565b610bc5565b005b61032a600480360381019061032591906126c0565b610d46565b6040516103379190613327565b60405180910390f35b61035a6004803603810190610355919061257b565b610e64565b005b610376600480360381019061037191906126c0565b610ec6565b6040516103839190613327565b60405180910390f35b6103a660048036038101906103a191906126c0565b610fe4565b6040516103b39190613327565b60405180910390f35b6103c4611136565b005b6103e060048036038101906103db91906124f0565b611347565b6040516103ed919061330c565b60405180910390f35b60007f80ac58cd000000000000000000000000000000000000000000000000000000007bffffffffffffffffffffffffffffffffffffffffffffffffffffffff1916827bffffffffffffffffffffffffffffffffffffffffffffffffffffffff191614806104c157507f5b5e139f000000000000000000000000000000000000000000000000000000007bffffffffffffffffffffffffffffffffffffffffffffffffffffffff1916827bffffffffffffffffffffffffffffffffffffffffffffffffffffffff1916145b806104d157506104d082611474565b5b9050919050565b6060600080546104e790613826565b80601f016020809104026020016040519081016040528092919081815260200182805461051390613826565b80156105605780601f1061053557610100808354040283529160200191610560565b820191906000526020600020905b81548152906001019060200180831161054357829003601f168201915b5050505050905090565b6000610575826114de565b6105b4576040517f08c379a00000000000000000000000000000000000000000000000000000000081526004016105ab906134e7565b60405180910390fd5b6004600083815260200190815260200160002060009054906101000a900473ffffffffffffffffffffffffffffffffffffffff169050919050565b60006105fa826109c9565b90508073ffffffffffffffffffffffffffffffffffffffff168373ffffffffffffffffffffffffffffffffffffffff16141561066b576040517f08c379a000000000000000000000000000000000000000000000000000000000815260040161066290613547565b60405180910390fd5b8073ffffffffffffffffffffffffffffffffffffffff1661068a61154a565b73ffffffffffffffffffffffffffffffffffffffff1614806106b957506106b8816106b361154a565b611347565b5b6106f8576040517f08c379a00000000000000000000000000000000000000000000000000000000081526004016106ef90613427565b60405180910390fd5b6107028383611552565b505050565b60085481565b61071e61071861154a565b8261160b565b61075d576040517f08c379a000000000000000000000000000000000000000000000000000000000815260040161075490613567565b60405180910390fd5b6107688383836116e9565b505050565b606060006107a161077d84611945565b60405160200161078d9190613216565b604051602081830303815290604052611af2565b9050600b80549050816107b491906138a1565b9050600b81815481106107f0577f4e487b7100000000000000000000000000000000000000000000000000000000600052603260045260246000fd5b90600052602060002001805461080590613826565b80601f016020809104026020016040519081016040528092919081815260200182805461083190613826565b801561087e5780601f106108535761010080835404028352916020019161087e565b820191906000526020600020905b81548152906001019060200180831161086157829003601f168201915b5050505050915050919050565b6108a683838360405180602001604052806000815250610e64565b505050565b606060006108df6108bb84611945565b6040516020016108cb919061325a565b604051602081830303815290604052611af2565b9050600e80549050816108f291906138a1565b9050600e818154811061092e577f4e487b7100000000000000000000000000000000000000000000000000000000600052603260045260246000fd5b90600052602060002001805461094390613826565b80601f016020809104026020016040519081016040528092919081815260200182805461096f90613826565b80156109bc5780601f10610991576101008083540402835291602001916109bc565b820191906000526020600020905b81548152906001019060200180831161099f57829003601f168201915b5050505050915050919050565b6000806002600084815260200190815260200160002060009054906101000a900473ffffffffffffffffffffffffffffffffffffffff169050600073ffffffffffffffffffffffffffffffffffffffff168173ffffffffffffffffffffffffffffffffffffffff161415610a72576040517f08c379a0000000000000000000000000000000000000000000000000000000008152600401610a6990613467565b60405180910390fd5b80915050919050565b60008073ffffffffffffffffffffffffffffffffffffffff168273ffffffffffffffffffffffffffffffffffffffff161415610aec576040517f08c379a0000000000000000000000000000000000000000000000000000000008152600401610ae390613447565b60405180910390fd5b600360008373ffffffffffffffffffffffffffffffffffffffff1673ffffffffffffffffffffffffffffffffffffffff168152602001908152602001600020549050919050565b606060018054610b4290613826565b80601f0160208091040260200160405190810160405280929190818152602001828054610b6e90613826565b8015610bbb5780601f10610b9057610100808354040283529160200191610bbb565b820191906000526020600020905b815481529060010190602001808311610b9e57829003601f168201915b5050505050905090565b610bcd61154a565b73ffffffffffffffffffffffffffffffffffffffff168273ffffffffffffffffffffffffffffffffffffffff161415610c3b576040517f08c379a0000000000000000000000000000000000000000000000000000000008152600401610c32906133e7565b60405180910390fd5b8060056000610c4861154a565b73ffffffffffffffffffffffffffffffffffffffff1673ffffffffffffffffffffffffffffffffffffffff16815260200190815260200160002060008473ffffffffffffffffffffffffffffffffffffffff1673ffffffffffffffffffffffffffffffffffffffff16815260200190815260200160002060006101000a81548160ff0219169083151502179055508173ffffffffffffffffffffffffffffffffffffffff16610cf561154a565b73ffffffffffffffffffffffffffffffffffffffff167f17307eab39ab6107e8899845ad3d59bd9653f200f220920489ca2b5937696c3183604051610d3a919061330c565b60405180910390a35050565b60606000610d7a610d5684611945565b604051602001610d6691906131af565b604051602081830303815290604052611af2565b9050600c8054905081610d8d91906138a1565b9050600c8181548110610dc9577f4e487b7100000000000000000000000000000000000000000000000000000000600052603260045260246000fd5b906000526020600020018054610dde90613826565b80601f0160208091040260200160405190810160405280929190818152602001828054610e0a90613826565b8015610e575780601f10610e2c57610100808354040283529160200191610e57565b820191906000526020600020905b815481529060010190602001808311610e3a57829003601f168201915b5050505050915050919050565b610e75610e6f61154a565b8361160b565b610eb4576040517f08c379a0000000000000000000000000000000000000000000000000000000008152600401610eab90613567565b60405180910390fd5b610ec084848484611b25565b50505050565b60606000610efa610ed684611945565b604051602001610ee6919061318d565b604051602081830303815290604052611af2565b9050600d8054905081610f0d91906138a1565b9050600d8181548110610f49577f4e487b7100000000000000000000000000000000000000000000000000000000600052603260045260246000fd5b906000526020600020018054610f5e90613826565b80601f0160208091040260200160405190810160405280929190818152602001828054610f8a90613826565b8015610fd75780601f10610fac57610100808354040283529160200191610fd7565b820191906000526020600020905b815481529060010190602001808311610fba57829003601f168201915b5050505050915050919050565b6060610fef826114de565b61102e576040517f08c379a0000000000000000000000000000000000000000000000000000000008152600401611025906134c7565b60405180910390fd5b600060066000848152602001908152602001600020805461104e90613826565b80601f016020809104026020016040519081016040528092919081815260200182805461107a90613826565b80156110c75780601f1061109c576101008083540402835291602001916110c7565b820191906000526020600020905b8154815290600101906020018083116110aa57829003601f168201915b5050505050905060006110d8611b81565b90506000815114156110ee578192505050611131565b60008251111561112357808260405160200161110b9291906130ef565b60405160208183030381529060405292505050611131565b61112c84611b98565b925050505b919050565b60326111426007611c3f565b111561114d57600080fd5b60006111596007611c3f565b905060006111668261076d565b9050600061117383610d46565b9050600061118084610ec6565b9050600083838360405160200161119993929190613113565b604051602081830303815290604052905060006111b5866108ab565b90506000600982600a856040516020016111d29493929190613144565b60405160208183030381529060405290506000611217846111f284611c4d565b6040516020016112039291906131d1565b604051602081830303815290604052611c4d565b905060008160405160200161122c9190613238565b6040516020818303038152906040529050611247338a611e0b565b6112518982611e29565b61128f6040518060400160405280601581526020017f0a2d2d2d2d2d2d2d2d2d2d2d2d2d2d2d2d2d2d2d2d00000000000000000000008152506113db565b611298816113db565b6112d66040518060400160405280601581526020017f2d2d2d2d2d2d2d2d2d2d2d2d2d2d2d2d2d2d2d2d0a00000000000000000000008152506113db565b6112f96040518060600160405280602581526020016139fc602591398a33611e9d565b6113036007611f3c565b7febb98688741ffa4c7589bf325de30cf7becb63de567842e1ccdb6cb949fdc82c338a6040516113349291906132e3565b60405180910390a1505050505050505050565b6000600560008473ffffffffffffffffffffffffffffffffffffffff1673ffffffffffffffffffffffffffffffffffffffff16815260200190815260200160002060008373ffffffffffffffffffffffffffffffffffffffff1673ffffffffffffffffffffffffffffffffffffffff16815260200190815260200160002060009054906101000a900460ff16905092915050565b611471816040516024016113ef9190613327565b6040516020818303038152906040527f41304fac000000000000000000000000000000000000000000000000000000007bffffffffffffffffffffffffffffffffffffffffffffffffffffffff19166020820180517bffffffffffffffffffffffffffffffffffffffffffffffffffffffff8381831617835250505050611f52565b50565b60007f01ffc9a7000000000000000000000000000000000000000000000000000000007bffffffffffffffffffffffffffffffffffffffffffffffffffffffff1916827bffffffffffffffffffffffffffffffffffffffffffffffffffffffff1916149050919050565b60008073ffffffffffffffffffffffffffffffffffffffff166002600084815260200190815260200160002060009054906101000a900473ffffffffffffffffffffffffffffffffffffffff1673ffffffffffffffffffffffffffffffffffffffff1614159050919050565b600033905090565b816004600083815260200190815260200160002060006101000a81548173ffffffffffffffffffffffffffffffffffffffff021916908373ffffffffffffffffffffffffffffffffffffffff160217905550808273ffffffffffffffffffffffffffffffffffffffff166115c5836109c9565b73ffffffffffffffffffffffffffffffffffffffff167f8c5be1e5ebec7d5bd14f71427d1e84f3dd0314c0f7b2291e5b200ac8c7c3b92560405160405180910390a45050565b6000611616826114de565b611655576040517f08c379a000000000000000000000000000000000000000000000000000000000815260040161164c90613407565b60405180910390fd5b6000611660836109c9565b90508073ffffffffffffffffffffffffffffffffffffffff168473ffffffffffffffffffffffffffffffffffffffff1614806116cf57508373ffffffffffffffffffffffffffffffffffffffff166116b78461056a565b73ffffffffffffffffffffffffffffffffffffffff16145b806116e057506116df8185611347565b5b91505092915050565b8273ffffffffffffffffffffffffffffffffffffffff16611709826109c9565b73ffffffffffffffffffffffffffffffffffffffff161461175f576040517f08c379a000000000000000000000000000000000000000000000000000000000815260040161175690613507565b60405180910390fd5b600073ffffffffffffffffffffffffffffffffffffffff168273ffffffffffffffffffffffffffffffffffffffff1614156117cf576040517f08c379a00000000000000000000000000000000000000000000000000000000081526004016117c6906133c7565b60405180910390fd5b6117da838383611f7b565b6117e5600082611552565b6001600360008573ffffffffffffffffffffffffffffffffffffffff1673ffffffffffffffffffffffffffffffffffffffff1681526020019081526020016000206000828254611835919061373c565b925050819055506001600360008473ffffffffffffffffffffffffffffffffffffffff1673ffffffffffffffffffffffffffffffffffffffff168152602001908152602001600020600082825461188c919061365b565b92505081905550816002600083815260200190815260200160002060006101000a81548173ffffffffffffffffffffffffffffffffffffffff021916908373ffffffffffffffffffffffffffffffffffffffff160217905550808273ffffffffffffffffffffffffffffffffffffffff168473ffffffffffffffffffffffffffffffffffffffff167fddf252ad1be2c89b69c2b068fc378daa952ba7f163c4a11628f55a4df523b3ef60405160405180910390a4505050565b6060600082141561198d576040518060400160405280600181526020017f30000000000000000000000000000000000000000000000000000000000000008152509050611aed565b600082905060005b600082146119bf5780806119a890613858565b915050600a826119b891906136b1565b9150611995565b60008167ffffffffffffffff811115611a01577f4e487b7100000000000000000000000000000000000000000000000000000000600052604160045260246000fd5b6040519080825280601f01601f191660200182016040528015611a335781602001600182028036833780820191505090505b5090505b60008514611ae657600182611a4c919061373c565b9150600a85611a5b91906138a1565b6030611a67919061365b565b60f81b818381518110611aa3577f4e487b7100000000000000000000000000000000000000000000000000000000600052603260045260246000fd5b60200101907effffffffffffffffffffffffffffffffffffffffffffffffffffffffffffff1916908160001a905350600a85611adf91906136b1565b9450611a37565b8093505050505b919050565b600081604051602001611b0591906130d8565b6040516020818303038152906040528051906020012060001c9050919050565b611b308484846116e9565b611b3c84848484611f80565b611b7b576040517f08c379a0000000000000000000000000000000000000000000000000000000008152600401611b7290613387565b60405180910390fd5b50505050565b606060405180602001604052806000815250905090565b6060611ba3826114de565b611be2576040517f08c379a0000000000000000000000000000000000000000000000000000000008152600401611bd990613527565b60405180910390fd5b6000611bec611b81565b90506000815111611c0c5760405180602001604052806000815250611c37565b80611c1684611945565b604051602001611c279291906130ef565b6040516020818303038152906040525b915050919050565b600081600001549050919050565b60606000825190506000811415611c765760405180602001604052806000815250915050611e06565b60006003600283611c87919061365b565b611c9191906136b1565b6004611c9d91906136e2565b90506000602082611cae919061365b565b67ffffffffffffffff811115611ced577f4e487b7100000000000000000000000000000000000000000000000000000000600052604160045260246000fd5b6040519080825280601f01601f191660200182016040528015611d1f5781602001600182028036833780820191505090505b5090506000604051806060016040528060408152602001613a21604091399050600181016020830160005b86811015611dc35760038101905062ffffff818a015116603f8160121c168401518060081b905060ff603f83600c1c1686015116810190508060081b905060ff603f8360061c1686015116810190508060081b905060ff603f831686015116810190508060e01b90508084526004840193505050611d4a565b506003860660018114611ddd5760028114611ded57611df8565b613d3d60f01b6002830352611df8565b603d60f81b60018303525b508484525050819450505050505b919050565b611e25828260405180602001604052806000815250612117565b5050565b611e32826114de565b611e71576040517f08c379a0000000000000000000000000000000000000000000000000000000008152600401611e6890613487565b60405180910390fd5b80600660008481526020019081526020016000209080519060200190611e98929190612353565b505050565b611f37838383604051602401611eb593929190613349565b6040516020818303038152906040527fe3849f79000000000000000000000000000000000000000000000000000000007bffffffffffffffffffffffffffffffffffffffffffffffffffffffff19166020820180517bffffffffffffffffffffffffffffffffffffffffffffffffffffffff8381831617835250505050611f52565b505050565b6001816000016000828254019250508190555050565b60008151905060006a636f6e736f6c652e6c6f679050602083016000808483855afa5050505050565b505050565b6000611fa18473ffffffffffffffffffffffffffffffffffffffff16612172565b1561210a578373ffffffffffffffffffffffffffffffffffffffff1663150b7a02611fca61154a565b8786866040518563ffffffff1660e01b8152600401611fec9493929190613297565b602060405180830381600087803b15801561200657600080fd5b505af192505050801561203757506040513d601f19601f820116820180604052508101906120349190612697565b60015b6120ba573d8060008114612067576040519150601f19603f3d011682016040523d82523d6000602084013e61206c565b606091505b506000815114156120b2576040517f08c379a00000000000000000000000000000000000000000000000000000000081526004016120a990613387565b60405180910390fd5b805181602001fd5b63150b7a0260e01b7bffffffffffffffffffffffffffffffffffffffffffffffffffffffff1916817bffffffffffffffffffffffffffffffffffffffffffffffffffffffff19161491505061210f565b600190505b949350505050565b6121218383612185565b61212e6000848484611f80565b61216d576040517f08c379a000000000000000000000000000000000000000000000000000000000815260040161216490613387565b60405180910390fd5b505050565b600080823b905060008111915050919050565b600073ffffffffffffffffffffffffffffffffffffffff168273ffffffffffffffffffffffffffffffffffffffff1614156121f5576040517f08c379a00000000000000000000000000000000000000000000000000000000081526004016121ec906134a7565b60405180910390fd5b6121fe816114de565b1561223e576040517f08c379a0000000000000000000000000000000000000000000000000000000008152600401612235906133a7565b60405180910390fd5b61224a60008383611f7b565b6001600360008473ffffffffffffffffffffffffffffffffffffffff1673ffffffffffffffffffffffffffffffffffffffff168152602001908152602001600020600082825461229a919061365b565b92505081905550816002600083815260200190815260200160002060006101000a81548173ffffffffffffffffffffffffffffffffffffffff021916908373ffffffffffffffffffffffffffffffffffffffff160217905550808273ffffffffffffffffffffffffffffffffffffffff16600073ffffffffffffffffffffffffffffffffffffffff167fddf252ad1be2c89b69c2b068fc378daa952ba7f163c4a11628f55a4df523b3ef60405160405180910390a45050565b82805461235f90613826565b90600052602060002090601f01602090048101928261238157600085556123c8565b82601f1061239a57805160ff19168380011785556123c8565b828001600101855582156123c8579182015b828111156123c75782518255916020019190600101906123ac565b5b5090506123d591906123d9565b5090565b5b808211156123f25760008160009055506001016123da565b5090565b6000612409612404846135d3565b6135a2565b90508281526020810184848401111561242157600080fd5b61242c8482856137e4565b509392505050565b6000813590506124438161399f565b92915050565b600081359050612458816139b6565b92915050565b60008135905061246d816139cd565b92915050565b600081519050612482816139cd565b92915050565b600082601f83011261249957600080fd5b81356124a98482602086016123f6565b91505092915050565b6000813590506124c1816139e4565b92915050565b6000602082840312156124d957600080fd5b60006124e784828501612434565b91505092915050565b6000806040838503121561250357600080fd5b600061251185828601612434565b925050602061252285828601612434565b9150509250929050565b60008060006060848603121561254157600080fd5b600061254f86828701612434565b935050602061256086828701612434565b9250506040612571868287016124b2565b9150509250925092565b6000806000806080858703121561259157600080fd5b600061259f87828801612434565b94505060206125b087828801612434565b93505060406125c1878288016124b2565b925050606085013567ffffffffffffffff8111156125de57600080fd5b6125ea87828801612488565b91505092959194509250565b6000806040838503121561260957600080fd5b600061261785828601612434565b925050602061262885828601612449565b9150509250929050565b6000806040838503121561264557600080fd5b600061265385828601612434565b9250506020612664858286016124b2565b9150509250929050565b60006020828403121561268057600080fd5b600061268e8482850161245e565b91505092915050565b6000602082840312156126a957600080fd5b60006126b784828501612473565b91505092915050565b6000602082840312156126d257600080fd5b60006126e0848285016124b2565b91505092915050565b6126f281613770565b82525050565b61270181613782565b82525050565b600061271282613618565b61271c818561362e565b935061272c8185602086016137f3565b6127358161398e565b840191505092915050565b600061274b82613623565b612755818561363f565b93506127658185602086016137f3565b61276e8161398e565b840191505092915050565b600061278482613623565b61278e8185613650565b935061279e8185602086016137f3565b80840191505092915050565b600081546127b781613826565b6127c18186613650565b945060018216600081146127dc57600181146127ed57612820565b60ff19831686528186019350612820565b6127f685613603565b60005b83811015612818578154818901526001820191506020810190506127f9565b838801955050505b50505092915050565b600061283660328361363f565b91507f4552433732313a207472616e7366657220746f206e6f6e20455243373231526560008301527f63656976657220696d706c656d656e74657200000000000000000000000000006020830152604082019050919050565b600061289c601c8361363f565b91507f4552433732313a20746f6b656e20616c7265616479206d696e746564000000006000830152602082019050919050565b60006128dc600a83613650565b91507f54484952445f574f5244000000000000000000000000000000000000000000006000830152600a82019050919050565b600061291c60248361363f565b91507f4552433732313a207472616e7366657220746f20746865207a65726f2061646460008301527f72657373000000000000000000000000000000000000000000000000000000006020830152604082019050919050565b600061298260198361363f565b91507f4552433732313a20617070726f766520746f2063616c6c6572000000000000006000830152602082019050919050565b60006129c2606383613650565b91507f222c20226465736372697074696f6e223a20224120686967686c79206163636c60008301527f61696d656420636f6c6c656374696f6e206f6620737175617265732e222c202260208301527f696d616765223a2022646174613a696d6167652f7376672b786d6c3b6261736560408301527f36342c00000000000000000000000000000000000000000000000000000000006060830152606382019050919050565b6000612a74600b83613650565b91507f5345434f4e445f574f52440000000000000000000000000000000000000000006000830152600b82019050919050565b6000612ab4602c8361363f565b91507f4552433732313a206f70657261746f7220717565727920666f72206e6f6e657860008301527f697374656e7420746f6b656e00000000000000000000000000000000000000006020830152604082019050919050565b6000612b1a600d83613650565b91507f3c2f746578743e3c2f7376673e000000000000000000000000000000000000006000830152600d82019050919050565b6000612b5a60388361363f565b91507f4552433732313a20617070726f76652063616c6c6572206973206e6f74206f7760008301527f6e6572206e6f7220617070726f76656420666f7220616c6c00000000000000006020830152604082019050919050565b6000612bc0602a8361363f565b91507f4552433732313a2062616c616e636520717565727920666f7220746865207a6560008301527f726f2061646472657373000000000000000000000000000000000000000000006020830152604082019050919050565b6000612c2660298361363f565b91507f4552433732313a206f776e657220717565727920666f72206e6f6e657869737460008301527f656e7420746f6b656e00000000000000000000000000000000000000000000006020830152604082019050919050565b6000612c8c602e8361363f565b91507f45524337323155524953746f726167653a2055524920736574206f66206e6f6e60008301527f6578697374656e7420746f6b656e0000000000000000000000000000000000006020830152604082019050919050565b6000612cf2600283613650565b91507f227d0000000000000000000000000000000000000000000000000000000000006000830152600282019050919050565b6000612d3260208361363f565b91507f4552433732313a206d696e7420746f20746865207a65726f20616464726573736000830152602082019050919050565b6000612d7260318361363f565b91507f45524337323155524953746f726167653a2055524920717565727920666f722060008301527f6e6f6e6578697374656e7420746f6b656e0000000000000000000000000000006020830152604082019050919050565b6000612dd8602c8361363f565b91507f4552433732313a20617070726f76656420717565727920666f72206e6f6e657860008301527f697374656e7420746f6b656e00000000000000000000000000000000000000006020830152604082019050919050565b6000612e3e60298361363f565b91507f4552433732313a207472616e73666572206f6620746f6b656e2074686174206960008301527f73206e6f74206f776e00000000000000000000000000000000000000000000006020830152604082019050919050565b6000612ea4602f8361363f565b91507f4552433732314d657461646174613a2055524920717565727920666f72206e6f60008301527f6e6578697374656e7420746f6b656e00000000000000000000000000000000006020830152604082019050919050565b6000612f0a600a83613650565b91507f7b226e616d65223a2022000000000000000000000000000000000000000000006000830152600a82019050919050565b6000612f4a60218361363f565b91507f4552433732313a20617070726f76616c20746f2063757272656e74206f776e6560008301527f72000000000000000000000000000000000000000000000000000000000000006020830152604082019050919050565b6000612fb0600a83613650565b91507f46495253545f574f5244000000000000000000000000000000000000000000006000830152600a82019050919050565b6000612ff0601d83613650565b91507f646174613a6170706c69636174696f6e2f6a736f6e3b6261736536342c0000006000830152601d82019050919050565b600061303060318361363f565b91507f4552433732313a207472616e736665722063616c6c6572206973206e6f74206f60008301527f776e6572206e6f7220617070726f7665640000000000000000000000000000006020830152604082019050919050565b6000613096600583613650565b91507f434f4c4f520000000000000000000000000000000000000000000000000000006000830152600582019050919050565b6130d2816137da565b82525050565b60006130e48284612779565b915081905092915050565b60006130fb8285612779565b91506131078284612779565b91508190509392505050565b600061311f8286612779565b915061312b8285612779565b91506131378284612779565b9150819050949350505050565b600061315082876127aa565b915061315c8286612779565b915061316882856127aa565b91506131748284612779565b915061317f82612b0d565b915081905095945050505050565b6000613198826128cf565b91506131a48284612779565b915081905092915050565b60006131ba82612a67565b91506131c68284612779565b915081905092915050565b60006131dc82612efd565b91506131e88285612779565b91506131f3826129b5565b91506131ff8284612779565b915061320a82612ce5565b91508190509392505050565b600061322182612fa3565b915061322d8284612779565b915081905092915050565b600061324382612fe3565b915061324f8284612779565b915081905092915050565b600061326582613089565b91506132718284612779565b915081905092915050565b600060208201905061329160008301846126e9565b92915050565b60006080820190506132ac60008301876126e9565b6132b960208301866126e9565b6132c660408301856130c9565b81810360608301526132d88184612707565b905095945050505050565b60006040820190506132f860008301856126e9565b61330560208301846130c9565b9392505050565b600060208201905061332160008301846126f8565b92915050565b600060208201905081810360008301526133418184612740565b905092915050565b600060608201905081810360008301526133638186612740565b905061337260208301856130c9565b61337f60408301846126e9565b949350505050565b600060208201905081810360008301526133a081612829565b9050919050565b600060208201905081810360008301526133c08161288f565b9050919050565b600060208201905081810360008301526133e08161290f565b9050919050565b6000602082019050818103600083015261340081612975565b9050919050565b6000602082019050818103600083015261342081612aa7565b9050919050565b6000602082019050818103600083015261344081612b4d565b9050919050565b6000602082019050818103600083015261346081612bb3565b9050919050565b6000602082019050818103600083015261348081612c19565b9050919050565b600060208201905081810360008301526134a081612c7f565b9050919050565b600060208201905081810360008301526134c081612d25565b9050919050565b600060208201905081810360008301526134e081612d65565b9050919050565b6000602082019050818103600083015261350081612dcb565b9050919050565b6000602082019050818103600083015261352081612e31565b9050919050565b6000602082019050818103600083015261354081612e97565b9050919050565b6000602082019050818103600083015261356081612f3d565b9050919050565b6000602082019050818103600083015261358081613023565b9050919050565b600060208201905061359c60008301846130c9565b92915050565b6000604051905081810181811067ffffffffffffffff821117156135c9576135c861395f565b5b8060405250919050565b600067ffffffffffffffff8211156135ee576135ed61395f565b5b601f19601f8301169050602081019050919050565b60008190508160005260206000209050919050565b600081519050919050565b600081519050919050565b600082825260208201905092915050565b600082825260208201905092915050565b600081905092915050565b6000613666826137da565b9150613671836137da565b9250827fffffffffffffffffffffffffffffffffffffffffffffffffffffffffffffffff038211156136a6576136a56138d2565b5b828201905092915050565b60006136bc826137da565b91506136c7836137da565b9250826136d7576136d6613901565b5b828204905092915050565b60006136ed826137da565b91506136f8836137da565b9250817fffffffffffffffffffffffffffffffffffffffffffffffffffffffffffffffff0483118215151615613731576137306138d2565b5b828202905092915050565b6000613747826137da565b9150613752836137da565b925082821015613765576137646138d2565b5b828203905092915050565b600061377b826137ba565b9050919050565b60008115159050919050565b60007fffffffff0000000000000000000000000000000000000000000000000000000082169050919050565b600073ffffffffffffffffffffffffffffffffffffffff82169050919050565b6000819050919050565b82818337600083830152505050565b60005b838110156138115780820151818401526020810190506137f6565b83811115613820576000848401525b50505050565b6000600282049050600182168061383e57607f821691505b6020821081141561385257613851613930565b5b50919050565b6000613863826137da565b91507fffffffffffffffffffffffffffffffffffffffffffffffffffffffffffffffff821415613896576138956138d2565b5b600182019050919050565b60006138ac826137da565b91506138b7836137da565b9250826138c7576138c6613901565b5b828206905092915050565b7f4e487b7100000000000000000000000000000000000000000000000000000000600052601160045260246000fd5b7f4e487b7100000000000000000000000000000000000000000000000000000000600052601260045260246000fd5b7f4e487b7100000000000000000000000000000000000000000000000000000000600052602260045260246000fd5b7f4e487b7100000000000000000000000000000000000000000000000000000000600052604160045260246000fd5b6000601f19601f8301169050919050565b6139a881613770565b81146139b357600080fd5b50565b6139bf81613782565b81146139ca57600080fd5b50565b6139d68161378e565b81146139e157600080fd5b50565b6139ed816137da565b81146139f857600080fd5b5056fe416e204e465420772f20494420257320686173206265656e206d696e74656420746f2025734142434445464748494a4b4c4d4e4f505152535455565758595a6162636465666768696a6b6c6d6e6f707172737475767778797a303132333435363738392b2fa26469706673582212200a65430e0c29d0b0e82e220cbcb654fdd59accb83d188c16b218a8049d9b135364736f6c634300080000333c73766720786d6c6e733d27687474703a2f2f7777772e77332e6f72672f323030302f73766727207072657365727665417370656374526174696f3d27784d696e594d696e206d656574272076696577426f783d273020302033353020333530273e3c7374796c653e2e62617365207b2066696c6c3a2077686974653b20666f6e742d66616d696c793a2073657269663b20666f6e742d73697a653a20323470783b207d3c2f7374796c653e3c726563742077696474683d273130302527206865696768743d2731303025272066696c6c3d27272f3e3c7465787420783d273530252720793d273530252720636c6173733d27626173652720646f6d696e616e742d626173656c696e653d276d6964646c652720746578742d616e63686f723d276d6964646c65273e",
  "linkReferences": {},
  "deployedLinkReferences": {}
}